{
  "contractName": "GenericSplitter",
  "abi": [
    {
      "constant": true,
      "inputs": [
        {
          "name": "",
          "type": "address"
        }
      ],
      "name": "balances",
      "outputs": [
        {
          "name": "",
          "type": "uint256"
        }
      ],
      "payable": false,
      "stateMutability": "view",
      "type": "function"
    },
    {
      "payable": false,
      "stateMutability": "nonpayable",
      "type": "fallback"
    },
    {
      "anonymous": false,
      "inputs": [
        {
          "indexed": false,
          "name": "totalAmount",
          "type": "uint256"
        },
        {
          "indexed": true,
          "name": "from",
          "type": "address"
        },
        {
          "indexed": true,
          "name": "beneficiary1",
          "type": "address"
        },
        {
          "indexed": true,
          "name": "beneficiary2",
          "type": "address"
        }
      ],
      "name": "MoneySplitted",
      "type": "event"
    },
    {
      "constant": false,
      "inputs": [
        {
          "name": "beneficiary1",
          "type": "address"
        },
        {
          "name": "beneficiary2",
          "type": "address"
        }
      ],
      "name": "splitMyMoney",
      "outputs": [],
      "payable": true,
      "stateMutability": "payable",
      "type": "function"
    },
    {
      "constant": false,
      "inputs": [
        {
          "name": "amount",
          "type": "uint256"
        },
        {
          "name": "beneficiary1",
          "type": "address"
        },
        {
          "name": "beneficiary2",
          "type": "address"
        }
      ],
      "name": "splitMyLocalBalance",
      "outputs": [],
      "payable": false,
      "stateMutability": "nonpayable",
      "type": "function"
    },
    {
      "constant": false,
      "inputs": [],
      "name": "withdraw",
      "outputs": [],
      "payable": false,
      "stateMutability": "nonpayable",
      "type": "function"
    },
    {
      "constant": true,
      "inputs": [],
      "name": "totalBalance",
      "outputs": [
        {
          "name": "",
          "type": "uint256"
        }
      ],
      "payable": false,
      "stateMutability": "view",
      "type": "function"
    }
  ],
  "bytecode": "0x608060405234801561001057600080fd5b5061102f806100206000396000f3fe60806040526004361061006d576000357c0100000000000000000000000000000000000000000000000000000000900463ffffffff16806327e235e31461007f5780633ccfd60b146100e457806344d26da8146100fb5780638e49fe571461015f578063ad7a672f146101da575b34801561007957600080fd5b50600080fd5b34801561008b57600080fd5b506100ce600480360360208110156100a257600080fd5b81019080803573ffffffffffffffffffffffffffffffffffffffff169060200190929190505050610205565b6040518082815260200191505060405180910390f35b3480156100f057600080fd5b506100f961021d565b005b61015d6004803603604081101561011157600080fd5b81019080803573ffffffffffffffffffffffffffffffffffffffff169060200190929190803573ffffffffffffffffffffffffffffffffffffffff1690602001909291905050506103a4565b005b34801561016b57600080fd5b506101d86004803603606081101561018257600080fd5b8101908080359060200190929190803573ffffffffffffffffffffffffffffffffffffffff169060200190929190803573ffffffffffffffffffffffffffffffffffffffff1690602001909291905050506108c3565b005b3480156101e657600080fd5b506101ef610eb4565b6040518082815260200191505060405180910390f35b60006020528060005260406000206000915090505481565b60008060003373ffffffffffffffffffffffffffffffffffffffff1673ffffffffffffffffffffffffffffffffffffffff168152602001908152602001600020541115156102d3576040517f08c379a00000000000000000000000000000000000000000000000000000000081526004018080602001828103825260138152602001807f496e73756666696369656e742066756e64732e0000000000000000000000000081525060200191505060405180910390fd5b60008060003373ffffffffffffffffffffffffffffffffffffffff1673ffffffffffffffffffffffffffffffffffffffff16815260200190815260200160002054905060008060003373ffffffffffffffffffffffffffffffffffffffff1673ffffffffffffffffffffffffffffffffffffffff168152602001908152602001600020819055503373ffffffffffffffffffffffffffffffffffffffff166108fc829081150290604051600060405180830381858888f193505050501580156103a0573d6000803e3d6000fd5b5050565b60003411151561041c576040517f08c379a00000000000000000000000000000000000000000000000000000000081526004018080602001828103825260128152602001807f596f75206d7573742073656e64204554482e000000000000000000000000000081525060200191505060405180910390fd5b600073ffffffffffffffffffffffffffffffffffffffff168273ffffffffffffffffffffffffffffffffffffffff16141580156104865750600073ffffffffffffffffffffffffffffffffffffffff168173ffffffffffffffffffffffffffffffffffffffff1614155b1515610520576040517f08c379a000000000000000000000000000000000000000000000000000000000815260040180806020018281038252602a8152602001807f506c6561736520766572696679207468652062656e656669636961726965732081526020017f6164647265737365732e0000000000000000000000000000000000000000000081525060400191505060405180910390fd5b3373ffffffffffffffffffffffffffffffffffffffff168273ffffffffffffffffffffffffffffffffffffffff161415801561058857503373ffffffffffffffffffffffffffffffffffffffff168173ffffffffffffffffffffffffffffffffffffffff1614155b1515610622576040517f08c379a00000000000000000000000000000000000000000000000000000000081526004018080602001828103825260298152602001807f596f752063616e6e6f7420626520612062656e6566696369617279206f66207481526020017f68652073706c69742e000000000000000000000000000000000000000000000081525060400191505060405180910390fd5b8073ffffffffffffffffffffffffffffffffffffffff168273ffffffffffffffffffffffffffffffffffffffff16141515156106ec576040517f08c379a000000000000000000000000000000000000000000000000000000000815260040180806020018281038252602f8152602001807f426f74682061646472657373657320617265207468652073616d652e2054686981526020017f7320697320666f7262696464656e2e000000000000000000000000000000000081525060400191505060405180910390fd5b6000610702600234610ed390919063ffffffff16565b905060006107198234610eee90919063ffffffff16565b905061076c826000808773ffffffffffffffffffffffffffffffffffffffff1673ffffffffffffffffffffffffffffffffffffffff16815260200190815260200160002054610f7990919063ffffffff16565b6000808673ffffffffffffffffffffffffffffffffffffffff1673ffffffffffffffffffffffffffffffffffffffff168152602001908152602001600020819055506107ff816000808673ffffffffffffffffffffffffffffffffffffffff1673ffffffffffffffffffffffffffffffffffffffff16815260200190815260200160002054610f7990919063ffffffff16565b6000808573ffffffffffffffffffffffffffffffffffffffff1673ffffffffffffffffffffffffffffffffffffffff168152602001908152602001600020819055508273ffffffffffffffffffffffffffffffffffffffff168473ffffffffffffffffffffffffffffffffffffffff163373ffffffffffffffffffffffffffffffffffffffff167fffb4ed764954571243bc9e7ccb3b8eec7d31f7f6f1473b52369538dfd2650f10346040518082815260200191505060405180910390a450505050565b826000803373ffffffffffffffffffffffffffffffffffffffff1673ffffffffffffffffffffffffffffffffffffffff1681526020019081526020016000205410151515610979576040517f08c379a00000000000000000000000000000000000000000000000000000000081526004018080602001828103825260158152602001807f496e73756666696369656e742062616c616e63652e000000000000000000000081525060200191505060405180910390fd5b600073ffffffffffffffffffffffffffffffffffffffff168273ffffffffffffffffffffffffffffffffffffffff16141580156109e35750600073ffffffffffffffffffffffffffffffffffffffff168173ffffffffffffffffffffffffffffffffffffffff1614155b1515610a7d576040517f08c379a000000000000000000000000000000000000000000000000000000000815260040180806020018281038252602a8152602001807f506c6561736520766572696679207468652062656e656669636961726965732081526020017f6164647265737365732e0000000000000000000000000000000000000000000081525060400191505060405180910390fd5b3373ffffffffffffffffffffffffffffffffffffffff168273ffffffffffffffffffffffffffffffffffffffff1614158015610ae557503373ffffffffffffffffffffffffffffffffffffffff168173ffffffffffffffffffffffffffffffffffffffff1614155b1515610b7f576040517f08c379a00000000000000000000000000000000000000000000000000000000081526004018080602001828103825260298152602001807f596f752063616e6e6f7420626520612062656e6566696369617279206f66207481526020017f68652073706c69742e000000000000000000000000000000000000000000000081525060400191505060405180910390fd5b8073ffffffffffffffffffffffffffffffffffffffff168273ffffffffffffffffffffffffffffffffffffffff1614151515610c49576040517f08c379a000000000000000000000000000000000000000000000000000000000815260040180806020018281038252602f8152602001807f426f74682061646472657373657320617265207468652073616d652e2054686981526020017f7320697320666f7262696464656e2e000000000000000000000000000000000081525060400191505060405180910390fd5b6000610c5f600285610ed390919063ffffffff16565b90506000610c768286610eee90919063ffffffff16565b9050610cc9856000803373ffffffffffffffffffffffffffffffffffffffff1673ffffffffffffffffffffffffffffffffffffffff16815260200190815260200160002054610eee90919063ffffffff16565b6000803373ffffffffffffffffffffffffffffffffffffffff1673ffffffffffffffffffffffffffffffffffffffff16815260200190815260200160002081905550610d5c826000808773ffffffffffffffffffffffffffffffffffffffff1673ffffffffffffffffffffffffffffffffffffffff16815260200190815260200160002054610f7990919063ffffffff16565b6000808673ffffffffffffffffffffffffffffffffffffffff1673ffffffffffffffffffffffffffffffffffffffff16815260200190815260200160002081905550610def816000808673ffffffffffffffffffffffffffffffffffffffff1673ffffffffffffffffffffffffffffffffffffffff16815260200190815260200160002054610f7990919063ffffffff16565b6000808573ffffffffffffffffffffffffffffffffffffffff1673ffffffffffffffffffffffffffffffffffffffff168152602001908152602001600020819055508273ffffffffffffffffffffffffffffffffffffffff168473ffffffffffffffffffffffffffffffffffffffff163373ffffffffffffffffffffffffffffffffffffffff167fffb4ed764954571243bc9e7ccb3b8eec7d31f7f6f1473b52369538dfd2650f10886040518082815260200191505060405180910390a45050505050565b60003073ffffffffffffffffffffffffffffffffffffffff1631905090565b6000808284811515610ee157fe5b0490508091505092915050565b6000828211151515610f68576040517f08c379a000000000000000000000000000000000000000000000000000000000815260040180806020018281038252600e8152602001807f53756220556e646572666c6f772100000000000000000000000000000000000081525060200191505060405180910390fd5b600082840390508091505092915050565b6000808284019050838110151515610ff9576040517f08c379a000000000000000000000000000000000000000000000000000000000815260040180806020018281038252600d8152602001807f53756d204f766572666c6f77210000000000000000000000000000000000000081525060200191505060405180910390fd5b809150509291505056fea165627a7a723058207f62e167ac24a26997a5373d599e94a4ef4aa783858ab09a3c4305119ef5eb320029",
  "source": "/*\n\nThis is a generic version of the Splitter. It is meant for anyone to use it (not just Alice, Bob and Carol).\nHere, it's not necessary to register beneficiaries, nor to \"own\" the contract.\nThe user will pass the beneficiaries addresses whenever she wants to split funds.\nIt is also possible to use her local balance, instead of sending ether every time.\n\n*/\n\n\npragma solidity 0.5.0;\n\nlibrary SafeMath {\n\tfunction add(uint a, uint b) internal pure returns(uint) {\n\t\tuint c = a + b;\n\t\trequire(c >= a, \"Sum Overflow!\");\n\n\t\treturn c;\n\t}\n\n\tfunction sub(uint a, uint b) internal pure returns(uint) {\n\t\trequire(b <= a, \"Sub Underflow!\");\n\t\tuint c = a - b;\n\n\t\treturn c;\n\t}\n\n\tfunction mul(uint a, uint b) internal pure returns(uint) {\n\t\tif(a == 0) {\n\t\t\treturn 0;\n\t\t}\n\n\t\tuint c = a * b;\n\t\trequire(c / a == b, \"Mul Overflow!\");\n\n\t\treturn c;\n\t}\n\n\tfunction div(uint a, uint b) internal pure returns(uint) {\n\t\tuint c = a / b;\n\n\t\treturn c;\n\t}\n}\n\ncontract GenericSplitter {\n\tusing SafeMath for uint;\n\t\t\n\tmapping(address => uint) public balances;\n\n\tevent MoneySplitted(uint totalAmount, address indexed from, address indexed beneficiary1, address indexed beneficiary2);\n\n\tfunction splitMyMoney(address payable beneficiary1, address payable beneficiary2) public payable {\n\t\trequire(msg.value > 0, \"You must send ETH.\");\n\t\trequire(beneficiary1 != address(0) && beneficiary2 != address(0), \"Please verify the beneficiaries addresses.\"); //would burn tokens\n\t\trequire(beneficiary1 != msg.sender && beneficiary2 != msg.sender, \"You cannot be a beneficiary of the split.\"); //would cheat\n\t\trequire(beneficiary1 != beneficiary2, \"Both addresses are the same. This is forbidden.\"); //would not actually split anything\n\n\t\tuint b1Part = msg.value.div(2);\n\t\tuint b2Part = msg.value.sub(b1Part);\n\n\t\tbalances[beneficiary1] = balances[beneficiary1].add(b1Part);\n\t\tbalances[beneficiary2] = balances[beneficiary2].add(b2Part);\n\t\t\n\t\temit MoneySplitted(msg.value, msg.sender, beneficiary1, beneficiary2);\n\t}\n\n\t//This could be either controlled by the website transparently, or the user could have a checkbox when able to use her balance:\n\t//amount is in WEI!\n\tfunction splitMyLocalBalance(uint amount, address payable beneficiary1, address payable beneficiary2) public {\n\t\trequire(balances[msg.sender] >= amount, \"Insufficient balance.\");\n\t\trequire(beneficiary1 != address(0) && beneficiary2 != address(0), \"Please verify the beneficiaries addresses.\"); //would burn tokens\n\t\trequire(beneficiary1 != msg.sender && beneficiary2 != msg.sender, \"You cannot be a beneficiary of the split.\"); //would cheat\n\t\trequire(beneficiary1 != beneficiary2, \"Both addresses are the same. This is forbidden.\"); //would not actually split anything\n\n\t\tuint b1Part = amount.div(2);\n\t\tuint b2Part = amount.sub(b1Part);\n\n\t\tbalances[msg.sender] = balances[msg.sender].sub(amount);\n\t\tbalances[beneficiary1] = balances[beneficiary1].add(b1Part);\n\t\tbalances[beneficiary2] = balances[beneficiary2].add(b2Part);\n\n\t\temit MoneySplitted(amount, msg.sender, beneficiary1, beneficiary2);\n\t}\n\n\tfunction withdraw() public {\n\t\trequire(balances[msg.sender] > 0, \"Insufficient funds.\");\n\n\t\tuint amount = balances[msg.sender];\n\t\tbalances[msg.sender] = 0;\n\t\tmsg.sender.transfer(amount);\n\t}\n\n\tfunction totalBalance() public view returns (uint) {\n\t\treturn address(this).balance;\n\t}\n\n\t//Fallback: not interested in donations.\n\tfunction() external {\n\t\trevert();\n\t}\n}",
  "sourcePath": "/home/daniel/DAPPS/splitter4/eth-splitter/contracts/GenericSplitter.sol",
  "compiler": {
    "name": "solc",
    "version": "0.5.0+commit.1d4f565a.Emscripten.clang"
  },
  "schemaVersion": "3.0.3",
  "updatedAt": "2019-04-11T17:38:49.889Z",
  "devdoc": {
    "methods": {}
  },
  "userdoc": {
    "methods": {}
  }
}