{
  "contractName": "OwnedByAlice",
  "abi": [
    {
      "constant": true,
      "inputs": [],
      "name": "alice",
      "outputs": [
        {
          "name": "",
          "type": "address"
        }
      ],
      "payable": false,
      "stateMutability": "view",
      "type": "function"
    },
    {
      "inputs": [],
      "payable": false,
      "stateMutability": "nonpayable",
      "type": "constructor"
    }
  ],
  "bytecode": "0x608060405234801561001057600080fd5b50336000806101000a81548173ffffffffffffffffffffffffffffffffffffffff021916908373ffffffffffffffffffffffffffffffffffffffff16021790555060e98061005f6000396000f3fe608060405260043610603f576000357c0100000000000000000000000000000000000000000000000000000000900463ffffffff168063fb47e3a2146044575b600080fd5b348015604f57600080fd5b5060566098565b604051808273ffffffffffffffffffffffffffffffffffffffff1673ffffffffffffffffffffffffffffffffffffffff16815260200191505060405180910390f35b6000809054906101000a900473ffffffffffffffffffffffffffffffffffffffff168156fea165627a7a7230582037f4439ab88044014c7c406fbf1d0f4c9f2aa64c5d9327982844b4efb3f10ad50029",
  "source": "pragma solidity 0.5.0;\n\nlibrary SafeMath {\n\tfunction add(uint a, uint b) internal pure returns(uint) {\n\t\tuint c = a + b;\n\t\trequire(c >= a, \"Sum Overflow!\");\n\n\t\treturn c;\n\t}\n\n\tfunction sub(uint a, uint b) internal pure returns(uint) {\n\t\trequire(b <= a, \"Sub Underflow!\");\n\t\tuint c = a - b;\n\n\t\treturn c;\n\t}\n\n\tfunction mul(uint a, uint b) internal pure returns(uint) {\n\t\tif(a == 0) {\n\t\t\treturn 0;\n\t\t}\n\n\t\tuint c = a * b;\n\t\trequire(c / a == b, \"Mul Overflow!\");\n\n\t\treturn c;\n\t}\n\n\tfunction div(uint a, uint b) internal pure returns(uint) {\n\t\tuint c = a / b;\n\n\t\treturn c;\n\t}\n}\n\ncontract OwnedByAlice {\n\taddress payable public alice;\n\n\tconstructor() public {\n\t\talice = msg.sender;\n\t}\n\n\tmodifier onlyAlice() {\n\t\trequire(msg.sender == alice, \"You are not Alice! You may keep your head. For now.\");\n\t\t_;\n\t}\n\n\tmodifier isNotAlice() {\n\t\trequire(msg.sender != alice, \"You are Alice! This function is not for you. Off with her head!\");\n\t\t_;\n\t}\n}\n\ncontract StrictSplitter is OwnedByAlice {\n\tusing SafeMath for uint;\n\n\tbool public isReady;\n\tuint public totalMoneySentFromAlice;\n\taddress payable public bob;\n\taddress payable public carol;\n\tmapping(address => uint) public balances;\n\n\tevent BeneficiariesReset(address indexed oldBob, address indexed oldCarol);\n\tevent BeneficiariesChanged(address indexed bob, address indexed carol);\n\tevent MoneySplitted(uint totalAmount, address indexed bob, address indexed carol);\n\n\tmodifier onlyAfterReady() {\n\t\trequire(isReady == true, \"There are no registered beneficiaries.\");\n\t\t_;\n\t}\n\n\tmodifier onlyBeforeReady() {\n\t\trequire(isReady == false, \"For safety, you must first call resetBeneficiaries() in order to be able to call this function again. Do you know what you are doing, my dear?\");\n\t\t_;\n\t}\n\n\tfunction registerBeneficiaries(address payable _bob, address payable _carol) public onlyAlice onlyBeforeReady {\n\t\trequire(_bob != address(0), \"The address passed for Bob is wrong.\"); //would burn tokens\n\t\trequire(_carol != address(0), \"The address passed for Carol is wrong.\"); //would burn tokens\n\t\trequire(_bob != alice && _carol != alice, \"You cannot be a beneficiary of the split.\"); //would cheat\n\t\trequire(_bob != _carol, \"Both addresses are the same. This is forbidden.\"); //would not actually split anything\n\n\t\tbob = _bob;\n\t\tcarol = _carol;\n\n\t\tisReady = true;\n\n\t\temit BeneficiariesChanged(bob, carol);\n\t}\n\n\t//Guarantees Alice knows what she's doing before changing the beneficiaries; old beneficiaries will still be able to withdraw funds.\n\tfunction resetBeneficiaries() public onlyAlice onlyAfterReady {\n\t\tisReady = false;\n\n\t\temit BeneficiariesReset(bob, carol);\n\n\t\tbob = address(0);\n\t\tcarol = address(0);\n\t}\n\n\tfunction splitMyMoney() public payable onlyAlice onlyAfterReady {\n\t\trequire(msg.value > 0, \"You must send ETH.\");\n\n\t\tuint bobsPart = msg.value.div(2);\n\t\tuint carolsPart = msg.value.sub(bobsPart);\n\n\t\tbalances[bob] = balances[bob].add(bobsPart);\n\t\tbalances[carol] = balances[carol].add(carolsPart);\n\t\ttotalMoneySentFromAlice = totalMoneySentFromAlice.add(msg.value);\n\n\t\temit MoneySplitted(msg.value, bob, carol);\n\t}\n\n\t//According to the briefing, Alice's balance will always be 0, since every wei she sends will be immediately split between Bob and Carol.\n\tfunction withdraw() public isNotAlice {\n\t\trequire(balances[msg.sender] > 0, \"Insufficient funds.\");\n\n\t\tuint amount = balances[msg.sender];\n\t\tbalances[msg.sender] = 0;\n\t\tmsg.sender.transfer(amount);\n\t}\n\n\tfunction totalBalance() public view returns (uint) {\n\t\treturn address(this).balance;\n\t}\n\n\t//Fallback: not interested in donations. Alice must use splitMyMoney(), as the briefing clearely states (\"whenever Alice sends ether to the contract FOR IT TO BE SPLIT...\")\n\tfunction() external {\n\t\trevert();\n\t}\n}",
  "sourcePath": "/home/daniel/DAPPS/splitter3/contracts/StrictSplitter.sol",
  "compiler": {
    "name": "solc",
    "version": "0.5.0+commit.1d4f565a.Emscripten.clang"
  },
  "schemaVersion": "3.0.3",
  "updatedAt": "2019-04-10T22:05:43.030Z",
  "devdoc": {
    "methods": {}
  },
  "userdoc": {
    "methods": {}
  }
}